:020000040800F2
:10000000B8830020450100081329000815240008C2
:100010001129000897060008CD2D000800000000F7
:10002000000000000000000000000000872A000817
:100030003908000800000000852A0008892A000805
:100040005F0100085F0100085F0100085F01000810
:100050005F0100085F0100085F0100085F01000800
:100060005F0100085F0100085F0100085F010008F0
:100070005F0100085F0100085F0100085F010008E0
:100080005F0100085F0100085F0100085F010008D0
:100090005F0100085F0100085F0100085F010008C0
:1000A0005F0100085F0100085F0100085F010008B0
:1000B0005F0100085F0100085F0100085F010008A0
:1000C0005F0100085F0100085F0100085F01000890
:1000D0005F010008C12D00085F0100085F010008F2
:1000E0005F0100085F0100085F0100085F01000870
:1000F0005F0100085F0100085F0100085F01000860
:100100005F0100085F0100085F0100085F0100084F
:100110005F0100085F010008092B0008152B00088B
:100120005F0100085F0100085F0100085F0100082F
:10013000DFF80CD000F01CFA0048004765300008DA
:10014000B88300200648804706480047FEE7FEE7E0
:10015000FEE7FEE7FEE7FEE7FEE7FEE7FEE7FEE777
:10016000072B000831010008202A04DB203A21FA7D
:1001700002F00021704721FA02F3D040C2F12002C0
:100180009140084319467047D2B201E000F8012BB4
:10019000491EFBD270470022F6E710B513460A4607
:1001A00004461946FFF7F0FF204610BD421E12F824
:1001B000013F002BFBD111F8013B02F8013B002B62
:1001C000F9D17047421C10F8011B0029FBD1801A9D
:1001D0007047F0B480EA0102D40F4200B2EB410F45
:1001E00002D20246084611464A0042D0C30DDDB293
:1001F000C1F3C752AD1A202D35DAC1F3160141F40F
:10020000000204B15242C5F1200602FA06F12A4169
:100210001044B3EBD05F23D0C4B1012DA0EBC35089
:1002200009DCF0BC4FF0004202EAC352DBB200F539
:10023000000000F012B9400000F1807000EBC350E4
:10024000A0F1807040EAD170490009E0490841EA14
:10025000C071A0EBC35000F50000400800EBC35094
:10026000F0BC00F0F1B86142012202EB4101001B39
:10027000F6E7F0BC704781F00041AAE780F000404B
:10028000A7E780EA010210B502F00043400022D047
:100290004A001FD0010E01EB1261C0F35600C2F3F9
:1002A000560240F4000042F40002A0FB02200004C9
:1002B0007F39140400D0401C50EA124001D44000A1
:1002C000491EC2B20C0604EBD010401C4008802A24
:1002D00002D003E0002010BD20F00100002900DA68
:1002E0000020184310BD2DE9FE4F81EA030404F0FD
:1002F000004421F0004100944FF0000B23F0004334
:1003000050EA01045ED052EA03045BD0C3F30A54FE
:10031000C1F30A552C44A4F2F3340194A0FB025417
:10032000C1F3130141F48011C3F3130343F48013A9
:1003300001FB024400FB034E840A970A44EA8154FD
:1003400047EA8357A4FB076802958D0A05FB0785DA
:100350004FEA932C04FB0C542705029D4FEA0658E4
:1003600047EA1637B5EB08056EEB070C870E920EC1
:1003700047EA811742EA8312A7FB0201B6EB0B01A1
:1003800064EB00042B0D43EA0C335E1844EB1C5065
:10039000DA465146E7FB0201C5F313044FEA0B337B
:1003A00043EA14534FEA0432019C43EA0603A4F1E2
:1003B0000C040294009CCDE900B400F08BF803B06B
:1003C000BDE8F08F00200146F9E7C10F80EAE07038
:1003D0000844CA079623002100F03FB800F000420D
:1003E00030F000400AD0C10D01F56071C0F3160075
:1003F00042EA0151C20840071143704700200146FC
:100400007047000030B5041E71F1000404DB4FF0AA
:100410000044404264EB0101141E73F1000405DB4B
:100420001C464FF00043524263EB0403994208BF5D
:10043000904230BD002801DBC0F10040002901DB03
:10044000C1F10041884270470029A8BF7047401C95
:10045000490008BF20F00100704710B4B0FA80FCDA
:1004600000FA0CF050EA010404BF10BC704749B117
:10047000CCF1200421FA04F411FA0CF118BF012187
:1004800021430843A3EB0C01CB1D4FEA00614FEA67
:10049000102042BF002010BC704700EBC350104436
:1004A0000029A4BF10BC7047401C490008BF20F0C1
:1004B000010010BC704710B5141E73F1000408DA77
:1004C000401C41F1000192185B411A4301D120F018
:1004D000010010BD2DE9F04D92469B4611B1B1FAD5
:1004E00081F202E0B0FA80F22032904600F052F839
:1004F00004460F4640EA0A0041EA0B0153465A46B9
:10050000084313D0114653EA010019D0C8F1400244
:100510005046FFF729FE05460E46504659464246CC
:1005200000F038F8084305D0012004E020463946A1
:10053000BDE8F08D0020054346EAE0762C433743C2
:100540000A986305E40AA0EB08000022FD0A44EAC9
:1005500047540A3002D500200146E9E70105101989
:100560006941DDE9084500196941BDE8F04DA2E7A0
:10057000064C074D06E0E06840F0010394E80700F0
:1005800098471034AC42F6D3FFF7D6FD303A000856
:10059000503A0008202A04DB203A00FA02F1002039
:1005A00070479140C2F1200320FA03F319439040B1
:1005B0007047000070B5044600688168C943C907E8
:1005C00017D1816821F00101816000F0B5FD054679
:1005D0000AE000BF00F0B0FD401B022804D92068EB
:1005E0008068C043C00706D020688068C043C00749
:1005F000F0D0002070BDA06A40F01000A062E06A58
:1006000040F00100E062012070BD0000F8B5002656
:100610000446009600688168C943C9072DD08168E7
:1006200041F001018160164816490068B0FBF1F005
:1006300000E0401E00900028FBD100F07DFD054643
:1006400016E000BF00F078FD401B022810D920689A
:100650008068C043C0070BD0A06A40F01000A062C1
:10066000E06A40F00100E06284F824600120F8BDF7
:1006700020688068C043C007E4D10020F8BD0000B6
:100680004800002040420F0010B501F0FBFFBDE81C
:10069000104002F021BDFEE72DE9F14F5C490C78D6
:1006A000601C00F0FF0B6E2C03D981F800B0BDE890
:1006B000F88FDFF85C91DFF85C81002509F12C09E7
:1006C00005EB450708EB870659F8250071688A464F
:1006D000FFF7D7FDB168FFF7CEFD0099FFF779FD71
:1006E00048F827006E2C01D0C6E9010A6D1C082DC0
:1006F000E6DB47484178012903D1482101710021F7
:10070000417082466E2C02D08AF800B0CFE7DFF845
:1007100004B100240BF1600B04EB4407454658F884
:10072000276059F824003146FFF7ABFD05EB870140
:100730004D682946FFF7A5FD074629460846FFF7FD
:10074000A0FD054631460846FFF79BFD2946FFF709
:1007500040FD3946FFF78FFD4BF82400641C082C40
:10076000DADB00210D46424601EB4103002002EB9B
:10077000830300BF43F82050401C0328FADB491CC8
:100780000829F1DB9AF8050054460128214800F1B8
:10079000600026D002F0EAFBE07001216171A178CF
:1007A000814231D148292FD048282DD0207981424B
:1007B0002AD0217118A002F025FBA1781BA002F01D
:1007C00021FBA07848281CD01149C91D08704D7024
:1007D0001848FFF7EBFC1748FFF7F4FC0F280CD084
:1007E0000FE002F0C3FBA0700A48603002F0F6FB95
:1007F000A0716079401C607106E010210D48FFF780
:10080000CAFC4820A070E0702078401C20704EE7A1
:100810004C000020387F0020CAB5CAB1BCECB2E25F
:10082000D2F4B5C4D7D6B7FBA3BA000025630D0A2E
:1008300000000000BC000020704772B6FEE7000018
:10084000F8B500250446009590F82400012808D04A
:10085000012084F824002046FFF7ACFE060002D0F9
:1008600053E00220F8BDA06A20F4885040F0020056
:10087000A062022000F088FE26490968B1FBF0F072
:10088000400000E0401E00900028FBD12046FFF70A
:10089000BDFE2068816841F00801816000F04CFCD9
:1008A000074608E000F048FCC01B0A2803D920686E
:1008B0008068000715D4206880680007F2D420689B
:1008C000816841F00401816000F036FC074612E0C7
:1008D00000F032FCC01B0A280DD920688068400750
:1008E00009D5A06A20F0020040F01000A06284F850
:1008F00024500120F8BD206880684007E8D4A06A31
:1009000020F0020040F00100A06284F8245030463C
:10091000F8BD000048000020F8B50024009490F8CD
:1009200024202546012A12D0012280F824204A687A
:100930001F23072A0DD20668776B521E02EB820234
:1009400093409F430B6893401F43776319E0022055
:10095000F8BD06680D2A0AD2376BD21F02EB82025D
:1009600093409F430B6893401F43376309E0F76A46
:100970000D3A02EB820293409F430B6893401F4362
:10098000F7620A68072306680A2A0AD3F7680A3A50
:1009900002EB420293409F438B6893401F43F760F2
:1009A00008E0376902EB420293409F438B68934013
:1009B0001F4337610A68102A01D0112A20D1124B37
:1009C00002689A4217D193681B0219D4936843F4C2
:1009D000000393600968102912D10C490C4A096878
:1009E000B1FBF2F101EB8101490000E0491E0091E9
:1009F0000029FBD104E0816A41F0200181620124D9
:100A000080F824502046F8BD002401404800002012
:100A100040420F000068C06C704700002DE9F041B3
:100A200004004FF000057FD0A06A002628B9E662D6
:100A300084F82460204600F081F82046FFF7BAFDD4
:100A4000A16AC90600D420B1A06A40F01000A062DB
:100A50006AE0A16A21F4885141F00201A1623349A0
:100A600023688B42E16904D1B1F5402F01D14FF4E5
:100A70000021277B4FF4807C41EA470261680A43EA
:100A8000A168614508D0012906D0002194F814E03E
:100A9000BEF1010F02D00AE06146F7E7C7B1A76ACD
:100AA00047F02007A762E76A47F00107E7625F683F
:100AB00027F469470F435F60236899681C4F3940EA
:100AC00011439960A16861450BD0012909D00CE060
:100AD000DFF860E0A7690EEB47370F4347F400618A
:100AE000E5E7218A0D05A5F580152168CB6A23F479
:100AF00070032B43CB62216889680F4B19409142E8
:100B000008D1E662A16A21F0020141F00101A1626F
:100B1000BDE8F081A06A20F0020040F01000A06261
:100B2000E06A40F00100E0620120F1E7003C014092
:100B3000FDF7E1FF00E0FFFFFE0E1FFF00B585B0EF
:100B40000021009101910291039100680E498842B1
:100B500018D10E48816941F400718161816901F405
:100B600000710491816941F00401816180696946E5
:100B700000F004000490012000900320019004483C
:100B800000F0D4F905B000BD00240140001002407F
:100B90000008014070B5044690F8240001280DD0EB
:100BA000012084F824002046FFF730FD02004FF0BA
:100BB000000005D084F82400104670BD022070BDEE
:100BC000A16A40F20123994341F48071A1621F4D53
:100BD00023681F49AB4218D10E6816F4702F14D049
:100BE000A66A46F48016A6620E68760505D5A66A42
:100BF00026F4005646F48056A662A66AF6040AD584
:100C0000E66A26F00606E66206E0A66A26F4801684
:100C1000A6625E68E9E7E06284F824006FF00200F3
:100C2000186020688368C3F34243072B05D1A842AC
:100C300008D1096811F4702F04D0816841F4801143
:100C40008160B9E7816841F4A001F9E7002801401B
:100C50000424014070B54379012B1CD00126467154
:100C60000223037105682B6802F0100440F6FE723F
:100C7000A2409343D1E900210A43A2401A432A60CB
:100C800001680A68C023A3409A430A6006710021E4
:100C90004171084670BD022070BD70B5040003D0DC
:100CA0002079002510B105E0012070BD6571204656
:100CB00000F008F802202071256101202071002039
:100CC00070BD000000B585B0002100910191029136
:100CD000039100680E49884218D10E48C16941F05D
:100CE0000051C161C16901F000510491816941F075
:100CF000040181618069694600F0040004901020BD
:100D0000009003200190044800F010F905B000BDE8
:100D100000740040001002400008014018B504684B
:100D200000940068104421B114300090036000204A
:100D300018BD0830F9E770B54279012A1ED00122AA
:100D40004271022303710468266801F0100302FA5D
:100D500003F52E4326600029016811D00C6804F4C5
:100D600070153C249C40A54203D14B6843F002031C
:100D70004B60027100214171084670BD022070BDB8
:100D80000B68C3F383030F2BF3D14B6843F00103CC
:100D9000EEE710B590F821100022022905D00421B9
:100DA000816380F82020012010BD01680B6823F0CA
:100DB0000E030B6001680B6823F001030B6090F8D1
:100DC0004030C46B012101FA03F3636080F8211005
:100DD00080F82020104610BD2DE9F05F90F821101A
:100DE0000024022903D004218163012485E00168E5
:100DF0000A6822F00E020A6001680A6822F0010205
:100E00000A603F4E3E4FB215DFF8F4C0DFF8F090B5
:100E1000DFF8ECA0DFF8E8B0DFF8E4E00168783F45
:100E200013011502ACF1640CA9F15009AAF13C0AB6
:100E3000ABF1280BAEF1140E4FF48018B14227D954
:100E4000B9420ED0614512D049451DD0514518D048
:100E5000594518D0714501D1424615E0294EB1429D
:100E600001D1012210E0274E1436B14201D11022E7
:100E70000AE0244E2836B14206D0224A3C32914242
:100E800001D11A4600E02A461E49091F0A602BE0DC
:100E9000B94213D0614517D0494522D051451DD0E4
:100EA00059451DD0714501D142461AE0B14202D1E7
:100EB0004FF0807215E0134EB14201D1012210E0D3
:100EC000104E1436B14201D110220AE00D4E2836E0
:100ED000B14206D00B4A3C32914201D11A4600E0A1
:100EE0002A46074980394A60012180F821100021F3
:100EF00080F82010416B01B188472046BDE8F09F83
:100F0000800002400804024070B5044600F014F965
:100F10000546601C02D004480078044400F00CF937
:100F2000401BA042FAD370BD3C0000202DE9F84FD1
:100F3000DFF8C891002409F1040A0AF1040B2346E2
:100F40000F270BF1040ED1E00125A54006EA0502AA
:100F5000AA4276D1DFF8A8C14E68A6EB0C08664518
:100F60002BD00DDC032E34D005DC36B3012E19D086
:100F7000022E2FD11BE0112E16D0122E2AD119E0ED
:100F8000B8F5881F19D006DCB8F5803F15D0B8F544
:100F9000801F1FD111E0B8F5001F0ED0B8F5041F57
:100FA00018D10AE0CB6815E0CB681B1D12E0CB68B6
:100FB00008330FE0CB680C330CE08B682BB1012BAE
:100FC0004FF0080303D0456104E0042302E005610B
:100FD00000E00023FF2A01D8064601E000F10406E4
:100FE0004FEA840501D9A5F12005D6F8008007FA5B
:100FF00005FC28EA0C0803FA05F548EA0508C6F8D6
:1010000000804D68ED0070D53E4DAE6946F001069A
:10101000AE61AD6924F0030605F0010500953A4D77
:1010200006EB050CDCF80850A607360F07FA06F8A1
:1010300025EA0805DFF8D480404503D14FF00008C9
:1010400025E052E0DFF8C880404502D14FF00108AA
:101050001DE0DFF8C080404502D14FF0020816E0E5
:10106000DFF8B480404502D14FF003080FE0DFF80D
:10107000AC80404502D14FF0040808E0DFF8A080C2
:10108000404502D14FF0050801E04FF0060808FA8C
:1010900006F848EA0508CCF808804D68D9F80060E1
:1010A000ED034D4601D5164300E096432E604D6892
:1010B000DAF80060AD03554601D5164300E09643CB
:1010C0002E604D68DBF80060ED025D4601D51643E9
:1010D00000E096432E604D68DEF80060AD02754674
:1010E00001D5164300E096432E60641C0A6816463C
:1010F000E2407FF429AFBDE8F88F00000004014012
:1011000000001110001002400000014000080140E2
:10111000000C014000100140001401400018014083
:10112000001C01408068084000D0012070470AB1CF
:10113000016170470904FBE70148806870470000BF
:101140003C00002070B5040025D094F83D00002537
:1011500020B984F83C50204600F050F9242084F84F
:101160003D002068016821F00101016020680168EC
:1011700041F4004101602068016821F400410160F0
:1011800000F078FB4D4A6168914201D84C4900E07B
:101190004C49884201D2012070BD4B492368B0FB05
:1011A000F1F15E6826F03F060E435E60636893428D
:1011B00006D94FF4967359434FF47A73B1FBF3F1A8
:1011C0002368491C1E6A26F03F0631431962616894
:1011D000914210D84900401EB0FBF1F2521CC2F3FC
:1011E0000B02042A01D2042022E0B0FBF1F0401CE3
:1011F000C0F30B001CE0A268F2B301EBC10303EBE8
:101200000116431EB3FBF6F35B1C43F480431B053E
:1012100049D092B301EBC10202EB0111401EB0FBB9
:10122000F1F0401CC0F30B0040F4804040F400405B
:101230002168CA694CF6FF739A431043C861D4E928
:10124000071001432068026822F0C00211430160C8
:10125000D4E9030101432068826848F2FF339A43CE
:1012600011438160D4E9050108432168CA6822F06E
:10127000FF021043C86001E00EE016E0206801683C
:1012800041F0010101602564202084F83D002563C0
:1012900084F83E50002070BD01EB4106431EB3FBB5
:1012A000F6F35B1CB3E70120C2E701EB4101401EEE
:1012B000B0FBF1F0401CC0F30B00B7E7A0860100C3
:1012C00080841E0000093D0040420F002DE9FF4FC1
:1012D00083B09A46DDE9119793460446DDF84080D5
:1012E000FFF72AFF054694F83D0020287FD11923F7
:1012F000012240492046009501F01EF9002876D1D0
:1013000094F83C00012872D0012084F83C00206849
:101310000168C90703D1016841F00101016020683B
:10132000016821F400610160212084F83D00402023
:1013300084F83E0000262664C4F82480A4F82A908D
:10134000608D20852C48E062CDE9007553465A46F1
:101350002046049901F076F870B930E02A46394603
:10136000204601F068F958B1206C042804D12068A7
:10137000016841F400710160012007B0BDE8F08F01
:10138000606A216800780861606A401C6062218D93
:10139000491E89B22185628D521E62852268536979
:1013A000DB435B070BD469B100781061606A401CB5
:1013B0006062208D401E2085608D401E6085208DDE
:1013C0000028CBD12A463946204601F08FF8002864
:1013D000CAD154F83D0B016841F40071016020202E
:1013E00004F81E09E67766770020C6E7FFE70220CB
:1013F000C3E70000020010000000FFFF10B586B038
:101400000021009101910291039100680F498842E7
:101410001AD10F4CA06940F00800A061A06969468C
:1014200000F008000490C0200090122001900320DA
:1014300003900848FFF77AFDE06940F40010E0618E
:10144000E06900F40010049006B010BD00540040A4
:1014500000100240000C01400248816802781144EB
:10146000816070473C000020074810B5016841F0DA
:1014700010010160032000F075F80F2000F006F85D
:1014800000F024F8002010BD0020024070B50D4D82
:1014900004464FF47A712878B1FBF0F00A490968E4
:1014A000B1FBF0F000F0CCFB48B9102C07D20022C1
:1014B0002146501E00F036F800206C6070BD0120FF
:1014C00070BD00003C000020480000200C4808B51A
:1014D000816941F001018161816901F0010100919F
:1014E000C16941F08051C161C06900F08050009035
:1014F0000448416821F0E06141F00071416008BD9D
:101500000010024000000140002809DB00F01F022B
:10151000012191404009800000F1E020C0F8001155
:1015200070470000F0B40E4B1B680C46C3F3022357
:10153000C3F10705042D00D90425191D072901D27F
:10154000002300E0DB1E012606FA05F1491E2140BA
:1015500099409E40761E16403143F0BC01F076BCA7
:101560000CED00E0064900F0070208684FF6FF03A3
:10157000184040EA0220034A104308607047000008
:101580000CED00E00000FA0510B52CA401461DCCBE
:1015900086B08DE81D002DA02D4C00680490002021
:1015A00004292FD00BDC01292FD0022928D100F0EB
:1015B00071F96168C1F38131491C49001EE00829B5
:1015C00020D010291CD161682268D20118D5C1F33E
:1015D0008342C9031DF8020009D5616804AAC1F35A
:1015E0004041515C1B4AB2FBF1F1484301E01A490A
:1015F00048436168490203D440000321B0FBF1F085
:1016000006B010BD00F056F9FAE7226AC2F30121D4
:10161000012903D1920701D5C803F1E7022905D1B9
:10162000626A920702D549F64040E9E70329E7D10B
:1016300021688903E4D54FF22440E1E70203040561
:10164000060708090A0B0C0D0E0F1010010200000E
:101650000010024000127A0000093D002DE9F84315
:1016600005460078354CC00754D0E0690026C0001C
:1016700008D4E06940F08050E061E069012600F0A4
:10168000805000902E480168C90512D40168804638
:1016900041F480710160FFF74FFD074605E000BF90
:1016A000FFF74AFDC01B642823D8D8F80000C00506
:1016B000F6D5206A10F4407021D0A98801F4407159
:1016C00081421CD0206A1F49012220F440700A6028
:1016D00000220A602062C00711D0FFF72DFD0746E7
:1016E00041F2883808E000BFFFF726FDC11B4145E5
:1016F00002D90320BDE8F883206A8007F4D5206A68
:10170000696820F44070084320621EB1E06920F04F
:101710008050E0612878800705D56068A96820F4CA
:101720004040084360602878C00605D56068696954
:1017300020F48000084360600020DBE700100240D6
:1017400000700040400442422DE9F0470F4605007A
:1017500061D0434E306800F00700B84209D23068CB
:1017600020F0070038433060306800F00700B842CE
:1017700051D128683B4C810712D5400703D56068DA
:1017800040F4E06060602878000703D5606840F4AA
:10179000605060606068A96820F0F00008436060F5
:1017A0002878C00728D06868012810D0216802284E
:1017B00010D0890700292EDA616821F00301014366
:1017C0006160FFF7B9FC804641F288390DE021687D
:1017D0008903EFE78901EDE7FFF7AEFCA0EB080115
:1017E000494502D90320BDE8F0876068696800F0C8
:1017F0000C00B0EB810FEFD1306800F00700B84269
:101800000BD9306820F0070038433060306800F0B2
:101810000700B84201D00120E5E72878400705D548
:101820006068E96820F4E060084360602878000799
:1018300006D56068296920F4605040EAC100606004
:1018400000F038F86168084AC1F30311515CC840E0
:101850000649086006480068FFF718FE0020C2E746
:101860000020024000100240183A00084800002002
:10187000400000200448054900684968044AC1F353
:101880000221515CC840704748000020001002400F
:10189000283A00080448054900684968044AC1F329
:1018A000C221515CC840704748000020001002402F
:1018B000283A000812A185B00FC98DE80F0014A0C6
:1018C000144A006804905168134801F00C03042B7B
:1018D00010D0082B0ED1C1F38343C9031DF80300B8
:1018E0000AD5516804AAC1F34041515C0A4A5043E9
:1018F000B0FBF1F005B0704708494843FAE7000033
:1019000002030405060708090A0B0C0D0E0F101040
:10191000010200000010024000127A0000093D00A0
:101920002DE9F84F040070D02078C04DC00749D091
:101930006868C0F38100012807D06868C0F381009F
:10194000022809D16868C00306D52868800339D504
:1019500060680028E7D035E06068B0F5803F0BD0C4
:1019600010B1B0F5A02F11D0286820F48030286085
:10197000286820F4802002E0286840F48030286045
:10198000606890B1FFF7D8FB06460AE0286840F48B
:1019900080202860F0E700BFFFF7CEFB801B6428A3
:1019A00073D828688003F7D50CE0FFF7C5FB06461F
:1019B00005E000BFFFF7C0FB801B6428F0D8286853
:1019C0008003F7D420789A4E80074FF001094FF03A
:1019D000000839D5686810F00C0F07D06868C0F3AC
:1019E0008100022809D16868C00306D428688007EE
:1019F00014D52069012808D110E02069B0B1C6F8DB
:101A00000090FFF799FB074605E00AE1FFF794FB1A
:101A1000C01B0228C4D828688007F7D528686169E8
:101A200020F0F80040EAC10028600DE0C6F8008010
:101A3000FFF782FB074604E0FFF77EFBC01B02288E
:101A400023D828688007F7D4207800072CD5794858
:101A5000A169D9B1C0F80090FFF76EFB074604E01A
:101A6000FFF76AFBC01B02280FD8686A8007F7D50A
:101A700071484FF4FA510068B0FBF1F0009000BFDC
:101A80000098411E0091FAD20EE080E0C0F800807C
:101A9000FFF752FB074604E0FFF74EFBC01B02288E
:101AA00075D8686A8007F7D42078400760D5E86960
:101AB0000027C00008D4E86940F08050E861E86978
:101AC000012700F0805000905C480168C90513D4DC
:101AD0000168834641F480710160FFF72DFB824667
:101AE00006E000BFFFF728FBA0EB0A0064284ED8F1
:101AF000DBF80000C005F5D5E06801280AD008B180
:101B0000052813D0286A20F001002862286A20F0F6
:101B1000040002E0286A40F001002862E06841F217
:101B2000883B98B1FFF708FB82460BE0286A40F03B
:101B300004002862EEE700BFFFF7FEFAA0EB0A01FF
:101B400059455AD8286A8007F6D50CE0FFF7F4FA11
:101B5000824605E0FFF7F0FAA0EB0A0159454CD8A0
:101B6000286A8007F6D41FB1E86920F08050E86148
:101B7000E06988B36968C1F38101022944D0022871
:101B8000C6F8608004D0FFF7D7FA044638E034E0A6
:101B9000FFF7D2FA074604E0FFF7CEFAC01B02288F
:101BA0002BD828688001F7D4206AB0F5803F05D192
:101BB0006868A16820F4003008436860D4E908012F
:101BC0000843696821F4741108436860C6F860909E
:101BD000FFF7B2FA044606E025E000BFFFF7ACFAD3
:101BE000001B022809D828688001F7D51BE000BF38
:101BF000FFF7A2FA001B022802D90320BDE8F88FE4
:101C000028688001F4D40EE00128F7D06868226AC1
:101C100000F48031914204D1616A00F4701088426E
:101C200001D00120EAE70020E8E7000000100240B0
:101C30000000424280044242480000200070004000
:101C400010B5401EB0F1807F01D3012010BD4FF0D0
:101C5000E02460610F21601701F0F8F80020A06116
:101C600007202061002010BD7047704770B590F8C4
:101C70003C20012A2CD0012480F83C40022280F82C
:101C80003D2003685A689D6822F070060A68324356
:101C90005A60104B02689A420ED00F4B9A420BD0FA
:101CA000B2F1804F08D00D4B9A4205D00C4B9A42AE
:101CB00002D00C4B9A4204D1496825F080031943A5
:101CC000916080F83D40002180F83C10084670BDCE
:101CD000022070BD002C014000340140000400408F
:101CE00000080040000C004010B5040003D094F838
:101CF0003D0010B107E0012010BD002084F83C0039
:101D0000204600F01FF8022084F83D00211D2068C5
:101D100000F006FF012084F8460084F83E0084F8B5
:101D20003F0084F8400084F8410084F8420084F8C1
:101D3000430084F8440084F8450084F83D00002006
:101D400010BD000008B5154A0168154891420ED132
:101D5000C16941F01001C161C069002200F01000AA
:101D6000009011463620FFF7DDFB362010E00D4ACB
:101D7000914211D1C16941F02001C161C0690022C5
:101D800000F02000009002213720FFF7CBFB372026
:101D9000BDE80840FFF7B8BB08BD000000100040D8
:101DA000001002400014004090F83D10012901D0BD
:101DB00001207047022180F83D100168CA6842F096
:101DC0000102CA6000680E4988420ED00D4988425F
:101DD0000BD0B0F1804F08D00B49884205D00B4999
:101DE000884202D00A49884204D1816801F0070183
:101DF000062903D0016841F001010160002070470D
:101E0000002C014000340140000400400008004064
:101E1000000C0040704770B50446006801694FF03F
:101E20000005C943890715D4C168C943890711D47E
:101E3000E91E016101202077206880698007204623
:101E400002D0FFF7E7FF04E000F098F8204600F02A
:101E500096F8257720680169C943490717D4C168F6
:101E6000C943490713D46FF00401016102202077B0
:101E70002068806910F4407F204602D0FFF7CAFF37
:101E800004E000F07BF8204600F079F82577206820
:101E90000169C943090716D4C168C943090712D4A7
:101EA0006FF008010161042020772068C069800775
:101EB000204602D0FFF7AEFF04E000F05FF82046B6
:101EC00000F05DF8257720680169C943C90617D479
:101ED000C168C943C90613D46FF01001016108201D
:101EE00020772068C06910F4407F204602D0FFF7B9
:101EF00091FF04E000F042F8204600F040F825771A
:101F000020680169C943C90708D1C168C943C90725
:101F100004D1891E0161204600F032F82068016971
:101F2000C943090609D4C168C943090605D46FF03D
:101F3000800101612046FFF797FE20680169C943CF
:101F4000490609D4C168C943490605D46FF0400168
:101F50000161204600F086F820680169C9438906BE
:101F60000BD4C168C943890607D46FF02001016111
:101F70002046BDE87040FFF778BE70BD70477047DF
:101F800070B500682E4901262E4C884200D126707B
:101F90002D49884224D12D48FEF73CFD0022A06047
:101FA00040F6184311462A48FEF7B8FEA078401CB8
:101FB000C1B22848A1700025007890B1607801284E
:101FC0000ED1E0684FF47A562349B04227D22289D5
:101FD000C2EBC202A2F5405221F81020401CE06082
:101FE00070BD6570A06840F27732904202DAE27804
:101FF000521CE270A02906D1E178982901D3174933
:102000000E70A570E570A0F50060FEF7DEF9FEF732
:1020100043FB134801786E29E2D9067070BDA08891
:10202000002231F8103011460948FEF777FEA088EB
:10203000401C80B2A080B042F0D3A580657070BD16
:10204000001000402C00002000140040CC7D002037
:10205000FC7D00201C000020CC0000204D00002052
:102060004C0000207047704770470000F8B50268C8
:1020700004461068D168536910F00F0F4FF0000547
:1020800053D003F0010601F4907737435FD0C207C5
:1020900005D0CA0503D5226C42F001022264420732
:1020A00005D5DA0703D0226C42F0020222648207CF
:1020B00005D5DA0703D0226C42F00402226402073D
:1020C00007D501F02002324303D0226C42F008020F
:1020D0002264226C002A34D0800604D5880602D5FA
:1020E000204600F083FD20684069216CC0F3801019
:1020F000090700D430B3204600F060FD2068416934
:1021000049061BD5416921F040014161A06BA8B18E
:1021100058494163A06BFEF75FFE002811D0A06B09
:10212000416B01B0BDE8F040084783060FD58B0630
:102130000DD52046BDE8F84000F058BD2046FFF719
:1021400093FFF8BD2046FFF78FFF2564F8BD266B8F
:102150002023012E52D1C60650D5CE064ED510688A
:1021600050680090506940062AD5A16B0868406805
:102170000004000CEAD0A68D8642E7D9E085886984
:10218000202818D0D06820F48070D0602068416981
:1021900021F0010141612068416921F04001416164
:1021A00084F83E3025632068C16821F01001C160C9
:1021B000A06BFEF7EEFDA08DE18D401A81B219E013
:1021C000A08DE18D401A81B2E08D0028BED000299B
:1021D000BCD0D06820F49070D0602068426922F0B2
:1021E0000102426184F83E3025632068C26822F013
:1021F0001002C2602046FFF736FFF8BD05062BD55A
:102200000D0629D594F83D002128F6D1A068B0F537
:10221000805F01D12069B0B1206A411C2162216830
:1022200000784860E08C401E0004000CE084E4D19B
:102230002068C16821F08001C1602068C16841F058
:102240004001C160F8BD206A0088C0F308005060FA
:10225000206A801C2062E5E74006F3D54806F1D5E8
:10226000D168204621F04001D16084F83D3000F073
:10227000D0F8F8BDAD2B000870B5040004D094F878
:102280003D00002510B106E0012070BD84F83C50EF
:10229000204600F023F8242084F83D002068C1681F
:1022A00021F40051C160204600F0FCFC2068016967
:1022B00021F4904101612068416921F02A014161C6
:1022C0002068C16841F40051C1602564202084F871
:1022D0003D0084F83E00002070BD000030B585B0A0
:1022E00000240094019402940394006818498842E1
:1022F0002CD11848816941F480418161816901F4E0
:1023000080410491816941F0040181618069124D2D
:1023100000F0040004904FF400700090022001903F
:102320000320039069462846FEF700FE2815CDE9F4
:102330000004694628460294FEF7F8FD0022114683
:102340002520FFF7EFF82520FFF7DEF805B030BDB8
:1023500000380140001002400008014070470000B2
:102360002DE9F843044690F83D001F4616460D46F9
:1023700020284CD1C5B1BEB194F83C00012846D00C
:10238000012084F83C004FF00008C4F84080212070
:1023900084F83D00FEF7D0FEA6848146E684A0685E
:1023A000B0F5805F03D004E00120BDE8F883206928
:1023B00028B12E465FF0000584F83C800EE0002630
:1023C000FAE78021204600F0C9FCA0B9AEB116F8AA
:1023D000010B21684860E08C401EE084E08C4B4695
:1023E0004FF0000200970028EBD14FF0400120464B
:1023F00000F0B4FC30B10320D7E735F8020BC0F38E
:102400000800E6E7202084F83D000020CDE7022008
:10241000CBE77047FEE701684A69D24352050FD403
:102420006FF480624A61002140F8301F202242731D
:102430008173026942F00402026101730120704756
:10244000002070472DE9F843044600680D46DDE999
:10245000089701689846164641F4807101604B4622
:1024600000224FF001112046009700F065F848B1B6
:1024700020680068C00502D54FF400702064032076
:10248000BDE8F883216805F0FE0008613B464A4636
:102490001549204600F084F888B9206841698069B0
:1024A00000903A464946204600F0C5F848B1206CF5
:1024B000042804D12068016841F400710160012002
:1024C000DEE7F5B2B8F1010F09D02168300A0861E2
:1024D0003A464946204600F0AEF80028E7D1206889
:1024E00005610020CCE700000200010070B516462F
:1024F0000D4604460DE02046FFF78DFF08B1012090
:1025000070BD681C05D0FEF717FE801BA84207D8D7
:1025100035B120684069C0434007ECD4002070BD4D
:10252000002044F8300F20216173A073216941F02D
:10253000200121612073E2E72DE9F0471E46904615
:102540000D460446C1F30747DDF8209008E0701CF3
:1025500006D0FEF7F1FDA0EB0900B0420FD876B12E
:102560002068012F18D0806925EA00000004000CC3
:1025700014D000214145EAD00020BDE8F0870020BA
:1025800044F8300F20216173A073216941F02001CC
:10259000216120730120F0E74069E5E70121E9E7C7
:1025A0002DE9F0479A4691460E46044600254FF025
:1025B0002008C1F3074725E020684069C043400573
:1025C00014D42068016841F40071016021686FF43F
:1025D00080604861256384F83D8084F83E50206C1B
:1025E00040F00400206484F83C501FE0B9F1FF3F44
:1025F00008D0FEF7A1FDA0EB0A0149450CD8B9F1BE
:10260000000F09D02068012F13D0806926EA00004E
:102610000004000C0BD0CFE744F8305F84F80D8045
:10262000A573206940F02000206125730120BDE8DA
:10263000F0874069EAE770B516460D4604460DE09E
:102640002046FFF7E8FE08B1012070BD681C05D0E8
:10265000FEF772FD801BA84207D835B1206840699B
:10266000C0430006ECD4002070BD002044F8300FB9
:1026700020216173A073216941F020012161207341
:10268000E2E700002DE9F041164CA51D21882868DD
:10269000FEF748FD0026A71E50B90520FEF734FCC2
:1026A00021882868FEF73EFD10B900F033F93E702E
:1026B00061886868FEF736FD002810D10520FEF716
:1026C00023FC61886868FEF72DFD002807D100F023
:1026D00021F9054901203870087004480660BDE8FA
:1026E000F08100001E0000202D0000203800002096
:1026F0003EB5002411480094019402940E49846070
:10270000016001250573047505614FF46021446083
:10271000C161FEF783F908B1FEF78FF80720009436
:10272000CDE9015069460548FEF7F6F8002801D0CA
:10273000FEF783F83EBD000000240140CC7D002060
:102740001CB500240C4900940A480194086008460E
:10275000FEF7A3FA08B1FEF770F80094002269466C
:1027600005480194FEF776FA002801D0FEF765F8D7
:102770001CBD000000740040FC7D002070B586B0D8
:10278000002420480094019402940394816941F04C
:1027900040018161816901F040010491816941F04A
:1027A00004018161816901F004010491816941F0B2
:1027B000080181618069144E00F008000490012234
:1027C00020213046FEF7B3FC082001258DE83100BA
:1027D00069463046FEF7AAFB102000900B48CDE971
:1027E000010569463046FEF7A1FB2020CDE9000532
:1027F0000220CDE9024069463046FEF797FB06B05D
:1028000070BD0000001002400018014000001110CF
:102810000D4810B50B4901600C49416000214FF48F
:1028200080428160C0E9031241618161C16101623E
:10283000FEF788FC002803D0BDE81040FDF7FDBF7F
:1028400010BD000000540040107E0020A086010052
:102850001CB500240E4800940C49019401604721E6
:10286000C0E9011440F2E7318461C160FFF73CFA2E
:1028700008B1FDF7E2FF0094694605480194FFF7AF
:10288000F5F9002801D0FDF7D8FF1CBD001000406D
:10289000647E00201CB500240E4800940C4901946D
:1028A00001600821C0E9011440F2E7318461C16090
:1028B000FFF71AFA08B1FDF7C0FF00946946054812
:1028C0000194FFF7D3F9002801D0FDF7B6FF1CBD36
:1028D00000140040AC7E00200C4810B50A4901608D
:1028E0004FF4E1314160002181600C22C160C0E9F8
:1028F00004128161C161FFF7BFFC002803D0BDE86D
:102900001040FDF79ABF10BD00380140F47E002052
:10291000FEE7FEE770B5002404F1B000C0B200F09D
:102920008DF8002000F08AF8102000F087F80025CC
:10293000002000F095F86D1CEDB2822DF8D3641CD8
:10294000E4B2082CE8D370BD10B5C820FEF7DCFA5D
:10295000BDE8104000F03CBA10B50446B031C8B232
:1029600000F06CF8102040EA141000F067F804F052
:102970000F00BDE8104000F061B800002DE9F04103
:10298000203A00240D468046D6B27F2803D9002085
:102990008D1C8046EDB2102B29460FD0FFF7DCFFCF
:1029A000164906EB460001EB4005285D00F058F89B
:1029B000641CE4B2062CF8D3BDE8F081FFF7CCFF2D
:1029C0000F4F00BF04EB0610385C00F049F8641CA0
:1029D000E4B2082CF6D36D1CE9B24046FFF7BCFF09
:1029E0005FF0000404EB06103844007A00F038F879
:1029F000641CE4B2082CF5D3DEE70000F0310008D7
:102A0000183400082DE9F041984617460E46044652
:102A100000250DE0434631462046FFF7AFFF08345E
:102A2000E4B2782C02D90024B61CF6B26D1CEDB2CB
:102A30007A5D002AEED1BDE8F081000001B584B0D6
:102A400001214FF4807204A88DE807000B46002294
:102A500078210248FEF73AFC05B000BD107E002048
:102A600001B584B001214FF4807204A88DE80700FD
:102A70000B46402278210248FEF728FC05B000BD35
:102A8000107E002070477047FEF7E6BC30B595B069
:102A900028216846FDF77FFB14210AA8FDF77BFB80
:102AA00018210FA8FDF777FB01210804CDE90010DC
:102AB0000025029502240491CDE907404FF4E0106F
:102AC00009906846FEF72CFF08B172B6FEE70AA926
:102AD0000F2081E831004FF48060CDE90D0502211F
:102AE0000AA8FEF731FE08B172B6FEE74FF40040C7
:102AF00011900F940FA8FEF7B1FD002801D072B617
:102B0000FEE715B030BD70470148FFF784B90000FB
:102B1000647E00200148FFF77EB90000AC7E0020F3
:102B2000F0B502681C4B1D4D1D4E1E4F1E4C4FF044
:102B3000804C984209D0A04207D0604505D0A842F9
:102B400003D0B04201D0B84204D122F0700E4A68DE
:102B500042EA0E02984209D0A04207D0604505D053
:102B6000A84203D0B04201D0B84203D122F440754C
:102B7000CA682A434D6922F080022A4302608A68AB
:102B8000C2620A688262984201D0A04201D10969FA
:102B9000016301214161F0BD002C014000040040AF
:102BA00000080040000C00400034014010B5406AAD
:102BB0000021C185C184FFF757FA10BD0168CA68BA
:102BC00022F49072CA6001684A6922F001024A61E7
:102BD000016B012904D10168CA6822F01002CA60A1
:102BE000202180F83E1000210163704708B590F85D
:102BF0003E10222901D0022008BD82684FF4805384
:102C00009A4201D1016921B1816A9A421BD04AB12D
:102C10000AE00268816A5268C2F308020A80816A87
:102C2000891C08E0026972B10268526802F07F02F2
:102C30000A70816A491C8162C18D491E0904090C10
:102C4000C18503D019E002685268F1E70168CA68DB
:102C500022F02002CA600168CA6822F48072CA6049
:102C600001684A6922F001024A61202180F83E1081
:102C7000016B012903D0FFF771FB002008BD002183
:102C800001630168CA6822F01002CA6001680A681C
:102C9000D20602D50A6849680091818DFFF7E3F9F1
:102CA000EBE7000070B5044600680169E26821F4B2
:102CB0004051114301612169A068084361690843DB
:102CC0002168CA6841F20C639A430243CA602068D3
:102CD0004169A26921F44071114341611E49206894
:102CE000884202D1FEF7D6FD01E0FEF7C3FD00EBFE
:102CF000C00101EB0012606864218000B2FBF0F3B8
:102D0000B3FBF1F36FF018067343B2FBF0F5B2FBBF
:102D1000F0F605EB8305322303EB0515B5FBF1F562
:102D2000B6FBF1F605F0F00505EB0615B2FBF0F683
:102D3000B2FBF0F0B0FBF1F06FF01802504306EB7D
:102D4000800003EB0010B0FBF1F0216800F00F00F1
:102D50002844886070BD0000003801402DE9F04132
:102D6000984617460E460446069D1DE0681C1BD07B
:102D70002DB1FEF7E1F9A0EB0800A84214D92068B4
:102D8000C16821F4D071C1602068416921F001015E
:102D90004161202084F83D0084F83E00002084F842
:102DA0003C000320BDE8F0812068006836EA00009E
:102DB00004D00020B842D9D00020F3E70120F9E781
:102DC0000148FFF753B90000F47E0020FEE7000041
:102DD000FEB50024094F4FF4807501263819CDE95E
:102DE000000601230022782102950548FEF76EFABD
:102DF000641CE4B21B2CF1D3FEBD000000000020D7
:102E0000107E00200FB4054B10B503A9044A0298A8
:102E100000F03BF810BC5DF814FB00004D300008DA
:102E2000980000200FB4084B10B504A902AA03981B
:102E300000F02BF8044602A9002000F091F820468B
:102E400010BC5DF814FB0000612F00080907090E93
:102E5000002804DB00F1E02080F80014704700F047
:102E60000F0000F1E02080F8141D704702E008C850
:102E7000121F08C1002AFAD170477047002001E0F4
:102E800001C1121F002AFBD170472DE9F84F994666
:102E9000924688460546002706E025280AD0514676
:102EA0004A4690476D1C7F1C28780028F5D138468B
:102EB000BDE8F88F002315F8011F18462E2915D1FB
:102EC00015F8011F04232A290DD06FF02F0229784D
:102ED000A1F13004092C09D800EB800002EB40007E
:102EE00008446D1CF3E758F8040B6D1C2A78002A7F
:102EF000DDD0632A07D0732A0FD0104651464A46C8
:102F000090477F1C2AE018F8042B8DF80020002140
:102F10008DF801106E46012103E058F8046B4FF064
:102F2000FF315A074FF0000401D409E0641C8442C9
:102F30000BDA8C42FADB325D002AF7D105E0641C23
:102F40008C42FCDB305D0028F9D1274404E016F800
:102F5000010B51464A469047641EF8D26D1CA3E708
:102F60000A68531C0B601070704700002DE9F04197
:102F7000002607465FF0010557F8261057F8250090
:102F8000FDF758FA00D22E466D1C6DB2042DF3DB0E
:102F90000425052457F8251057F82400FDF74AFAB0
:102FA00000D22546641C64B2082CF3DB2A46314665
:102FB000384600F0DBF805EB8601091F40B249B244
:102FC000012802D0102900D210B14820BDE8F081BC
:102FD0000148405CFAE70000550000202DE9F0416F
:102FE000002607465FF0010557F8261057F8250020
:102FF000FDF720FA00D22E466D1C6DB2042DF3DBD6
:103000000425052457F8251057F82400FDF712FA77
:1030100000D22546641C64B2082CF3DB2A463146F4
:10302000384600F0A3F805EB8601091F40B249B20B
:10303000012802D0102900D210B11120BDE8F08182
:103040000148405CFAE700006600002013B54FF02D
:10305000FF33012269460248FFF782F900981CBD40
:10306000F47E0020FEF700FAFFF710FDFFF786FB65
:10307000FFF7CEFBFFF7ECFBFFF73AFBFFF70AFC8D
:10308000FFF72AFCFFF75CFB0E48FEF78DFE0E48AB
:10309000FEF78AFE0D48FDF7D3FB0C48FDF77AFDDD
:1030A00000210B48FDF747FEFFF74EFCFFF732FC0F
:1030B000084C002520780128FCD12570FDF7E4FAA2
:1030C000F8E70000647E0020AC7E0020CC7D00206C
:1030D000FC7D00202C000020164810B5007868B157
:1030E000012826D114A11848FFF79CFE1023164A88
:1030F0000021BDE810400220FFF784BC13A1124854
:10310000FFF790FE104815A11030FFF78BFE10233B
:103110000D4A00210220FFF775FC0B4A0221102303
:1031200010320846FFF76EFC074A102320320621B2
:10313000DFE710BD1C0000205265636F7264204DF4
:103140006F64652E2E2E00009C000020446574657F
:103150006374696F6E2E2E2E000000004465746546
:1031600063746564206E756D206973002DE9F04706
:10317000DFF878A016460F4605460024BC4212D060
:1031800055F82700FDF72AF98046894655F82400AE
:10319000FDF724F900225346FDF7A5F842464B46B9
:1031A000FDF730F919D9641CE4B2032CE6D90424E4
:1031B000B44215D055F82600FDF710F907468846A9
:1031C00055F82400FDF70AF900225346FDF78BF865
:1031D0003A464346FDF716F902D80120BDE8F087CC
:1031E000641CE4B2072CE3D90020F7E70000144088
:1031F0000000000000000000002F00000000070099
:10320000070000147F147F1400242A7F2A12006212
:1032100064081323003649552250000005030000BE
:1032200000001C224100000041221C000014083E46
:1032300008140008083E0808000000A0600000080C
:103240000808080800006060000000201008040260
:10325000003E5149453E0000427F4000004261511E
:103260004946002141454B31001814127F100027B8
:1032700045454539003C4A4949300001710905037B
:1032800000364949493600064949291E00003636AC
:10329000000000005636000000081422410000140F
:1032A00014141414000041221408000201510906EC
:1032B00000324959513E007C1211127C007F49496D
:1032C0004936003E41414122007F4141221C007F9E
:1032D00049494941007F09090901003E4149497AAC
:1032E000007F0808087F0000417F41000020404126
:1032F0003F01007F08142241007F40404040007F92
:10330000020C027F007F0408107F003E4141413ED5
:10331000007F09090906003E4151215E007F09191D
:1033200029460046494949310001017F0101003F1A
:103330004040403F001F2040201F003F4038403F9A
:1033400000631408146300070870080700615149FE
:10335000454300007F41410000552A552A55000091
:1033600041417F000004020102040040404040400F
:10337000000001020400002054545478007F4844A7
:10338000443800384444442000384444487F0038DE
:103390005454541800087E0901020018A4A4A47C07
:1033A000007F080404780000447D400000408084D1
:1033B0007D00007F102844000000417F4000007C19
:1033C00004180478007C0804047800384444443825
:1033D00000FC242424180018242418FC007C080471
:1033E000040800485454542000043F444020003C4A
:1033F0004040207C001C2040201C003C4030403CD1
:10340000004428102844001CA0A0A07C0044645460
:103410004C441414141414140000000000000000A4
:103420000000000000000000000000F800000000A4
:10343000000000333000000000100C06100C0600E5
:10344000000000000000000040C07840C07840004C
:10345000043F04043F040400007088FC08300000AE
:10346000001820FF211E0000F008F000E018000006
:1034700000211C031E211E0000F0088870000000BF
:103480001E2123241927211010160E000000000011
:103490000000000000000000000000E0180402002E
:1034A000000000071820400000020418E00000009F
:1034B0000040201807000000404080F0804040009D
:1034C0000202010F01020200000000F000000000F3
:1034D0000101011F010101000000000000000000C7
:1034E00080B070000000000000000000000000003C
:1034F00000010101010101010000000000000000C5
:10350000003030000000000000000000806018045F
:10351000006018060100000000E010080810E0003C
:10352000000F102020100F00001010F80000000005
:103530000020203F2020000000700808088870004C
:1035400000302824222130000030088888483000CC
:103550000018202020110E000000C02010F80000EC
:1035600000070424243F240000F808888808080085
:103570000019212020110E0000E01088881800009A
:10358000000F112020110E0000380808C83808006C
:103590000000003F000000000070880808887000EC
:1035A000001C222121221C0000E010080810E0006D
:1035B0000000312222110F00000000C0C0000000F6
:1035C000000000303000000000000080000000001B
:1035D0000000806000000000000080402010080013
:1035E00000010204081020004040404040404000DC
:1035F00004040404040404000008102040800000B7
:103600000020100804020100007048080808F000BB
:103610000000003036010000C030C828E810E0008B
:103620000718272423140B000000C038E000000016
:10363000203C23020227382008F888888870000080
:10364000203F202020110E00C03008080808380054
:10365000071820202010080008F808080810E000CB
:10366000203F202020100F0008F88888E80810006C
:10367000203F20202320180008F88888E808100040
:10368000203F200003000000C03008080838000078
:1036900007182020221E020008F808000008F80879
:1036A000203F210101213F20000808F80808000000
:1036B0000020203F2020000000000808F808080033
:1036C000C08080807F00000008F888C028180800AB
:1036D000203F20012638200008F8080000000000E4
:1036E000203F20202020300008F8F800F8F80800DB
:1036F000203F003F003F200008F830C00008F808D5
:10370000203F200007183F00E01008080810E000E4
:103710000F10202020100F0008F808080808F000FB
:10372000203F210101010000E01008080810E0001E
:103730000F18242438504F0008F8888888887000B3
:10374000203F2000030C3020007088080808380053
:103750000038202121221C00180808F80808180049
:103760000000203F2000000008F808000008F808CA
:10377000001F202020201F000878880000C838087B
:10378000000007380E010000F80800F80008F800F3
:10379000033C0700073C030008186880806818088D
:1037A00020302C03032C30200838C800C83808000B
:1037B0000000203F2000000010080808C83808005A
:1037C0002038262120201800000000FE02020200FE
:1037D0000000007F40404000000C30C000000000AE
:1037E000000000010638C00000020202FE000000D6
:1037F000004040407F00000000000402020204007C
:1038000000000000000000000000000000000000B8
:1038100080808080808080800002020400000000A0
:103820000000000000000000000080808080000098
:103830000019242222223F2008F800808000000086
:10384000003F112020110E00000000808080000049
:10385000000E112020201100000000808088F80058
:10386000000E112020103F2000008080808000008A
:10387000001F222222221300008080F088888818EE
:103880000020203F202000000000808080808000F9
:10389000006B94949493600008F80080808000008E
:1038A000203F210000203F20008098980000000069
:1038B0000020203F20200000000000809898000099
:1038C00000C08080807F000008F8000080808000B9
:1038D000203F24022D302000000808F800000000DE
:1038E0000020203F20200000808080808080800099
:1038F000203F20003F20003F80800080808000002B
:10390000203F210000203F200000808080800000B8
:10391000001F202020201F008080008080000000E9
:1039200080FFA12020110E00000000808080800018
:10393000000E112020A0FF80808080008080800009
:1039400020203F2120000100000080808080800036
:103950000033242424241900008080E080800000AB
:103960000000001F202000008080000000808000F8
:10397000001F202020103F20808080000080808059
:1039800000010E30080601008080008000808080E9
:103990000F300C030C300F0000808000808080000E
:1039A0000020312E0E312000808080000080808039
:1039B00080818E70180601000080808080808000E9
:1039C0000021302C2221300000000000807C020207
:1039D00000000000003F40400002027C8000000028
:1039E0000040403F0000000000000000FF00000019
:1039F00000000000FF00000000001010F8000000B0
:103A0000000020203F2020000000000000000000F7
:103A100000000000000000000000000000000000A6
:103A20000102030406070809000000000102030464
:103A3000503A0008000000209C0000006C2E000896
:103A4000EC3A00089C0000201C8300007C2E00083B
:103A5000AE001040B081FFA1A6A83FC8D300D5801A
:103A6000D805D9F1DA12D8308D14AF00000010005B
:103A7000080000000018014000180140000000008C
:103A80000000000000000000000000000100000035
:103A900010000000000000000024F4000100464671
:103AA000460100000031323361343536623738392F
:103AB000632A302364480102030405060708090A43
:103AC0000B0C0D0E0F101100EA95DA3FEA95D23F6C
:103AD000E3C7C83FA835BD3FF4FD943F840D7F3F49
:0C3AE0007F6A4C3FAA82113F00000000EA
:0400000508000131BD
:00000001FF
